:020000040800F2
:1000000000000320998C00088D8B00088F8B00085E
:10001000918B0008938B0008958B0008000000006E
:10002000000000000000000000000000978B0008A6
:10003000998B0008000000009B8B00089D8B000836
:10004000E98C0008E98C0008E98C0008E98C0008BC
:10005000E98C0008E98C0008E98C0008E98C0008AC
:10006000E98C0008E98C0008E98C0008E98C00089C
:10007000E98C0008E98C0008E98C0008E98C00088C
:10008000E98C0008E98C0008E98C0008E98C00087C
:10009000E98C0008E98C0008E98C0008E98C00086C
:1000A000E98C0008E98C0008E98C0008E98C00085C
:1000B000AD8B0008E98C0008E98C0008E98C000889
:1000C000E98C0008E98C0008E98C0008E98C00083C
:1000D000E98C0008E98C0008E98C0008E98C00082C
:1000E000E98C0008E98C0008E98C0008E98C00081C
:1000F000E98C0008E98C0008E98C0008E98C00080C
:10010000E98C00081D8C0008E98C0008E98C0008C7
:10011000E98C0008E98C0008E98C0008E98C0008EB
:10012000298C0008E98C0008E98C0008358C00084F
:10013000E98C0008E98C0008E98C0008E98C0008CB
:10014000E98C0008E98C0008E98C0008E98C0008BB
:10015000418C0008E98C0008E98C0008E98C000853
:10016000E98C0008E98C0008E98C0008E98C00089B
:10017000E98C0008E98C0008E98C00080000000008
:10018000E98C0008E98C0008E98C0008E98C00087B
:10019000E98C0008E98C0008E98C0008E98C00086B
:0C01A000E98C0008E98C0008E98C0008DC
:1001B00010B5054C237833B9044B13B10448AFF3A1
:1001C00000800123237010BDA085002000000000E6
:1001D000909B000808B5034B1BB103490348AFF3DC
:1001E000008008BD00000000A4850020909B00084E
:1001F000034613F8012B002AFBD1181A0138704767
:1002000001F0FF01102A2BDB10F0070F08D010F8C7
:10021000013B013A8B422DD010F0070F42B3F6D1CB
:10022000F0B441EA012141EA014122F007047FF0E4
:1002300000070023F0E80256083C85EA010586EA3B
:10024000010685FA47F5A3FA87F586FA47F6A5FA77
:1002500087F68EB9EED1F0BC01F0FF0102F0070283
:1002600032B110F8013B013A83EA010313B1F8D12E
:100270000020704701387047002D06BF354603380F
:10028000073815F0010F07D1013015F4807F02BF48
:10029000013015F4C03F0130F0BC0138704700BF99
:1002A0004B1C012B98BF70472DE9F003911C9B0854
:1002B000B1F80480B1F802900A8831F802CC804489
:1002C000814402448444D9F80070D8F8006015686D
:1002D000DCF80040C9F80060C8F80070CCF80050A5
:1002E0001460D9F80470D8F804605568DCF804404C
:1002F000C9F80460C8F80470CCF8045054600831A0
:10030000013BD5D1BDE8F00370474B1C012B98BFD2
:1003100070472DE9F003911C9B08B1F80480B1F8F7
:1003200002900A8831F802CC00EB580800EB59091A
:1003300000EB520200EB5C0CD9F80070D8F80060BA
:100340001568DCF80040C9F80060C8F80070CCF807
:10035000005014600831013BDFD1BDE8F003704765
:1003600081F0004102E000BF83F0004330B54FEA66
:1003700041044FEA430594EA050F08BF90EA020FD3
:100380001FBF54EA000C55EA020C7FEA645C7FEA66
:10039000655C00F0E2804FEA5454D4EB5555B8BF89
:1003A0006D420CDD2C4480EA020281EA030382EAFA
:1003B000000083EA010180EA020281EA0303362D8C
:1003C00088BF30BD11F0004F4FEA01314FF4801C5F
:1003D0004CEA113102D0404261EB410113F0004F71
:1003E0004FEA03334CEA133302D0524263EB430328
:1003F00094EA050F00F0A780A4F10104D5F1200EC6
:100400000DDB02FA0EFC22FA05F2801841F1000120
:1004100003FA0EF2801843FA05F359410EE0A5F1F4
:1004200020050EF1200E012A03FA0EFC28BF4CF025
:10043000020C43FA05F3C01851EBE37101F00045DB
:1004400007D54FF0000EDCF1000C7EEB00006EEBE8
:100450000101B1F5801F1BD3B1F5001F0CD3490872
:100460005FEA30004FEA3C0C04F101044FEA4452C9
:1004700012F5800F80F09A80BCF1004F08BF5FEA50
:10048000500C50F1000041EB045141EA050130BD30
:100490005FEA4C0C404141EB010111F4801FA4F1D3
:1004A0000104E9D191F0000F04BF01460020B1FA28
:1004B00081F308BF2033A3F10B03B3F120020CDA60
:1004C0000C3208DD02F1140CC2F10C0201FA0CF03E
:1004D00021FA02F10CE002F11402D8BFC2F1200CA3
:1004E00001FA02F120FA0CFCDCBF41EA0C01904059
:1004F000E41AA2BF01EB0451294330BD6FEA0404A2
:100500001F3C1CDA0C340EDC04F11404C4F120028C
:1005100020FA04F001FA02F340EA030021FA04F39E
:1005200045EA030130BDC4F10C04C4F1200220FAF5
:1005300002F001FA04F340EA0300294630BD21FA33
:1005400004F0294630BD94F0000F83F4801306BFF9
:1005500081F480110134013D4EE77FEA645C18BFED
:100560007FEA655C29D094EA050F08BF90EA020F84
:1005700005D054EA000C04BF1946104630BD91EA7C
:10058000030F1EBF0021002030BD5FEA545C05D17F
:100590004000494128BF41F0004130BD14F58004BE
:1005A0003CBF01F5801130BD01F0004545F0FE4132
:1005B00041F470014FF0000030BD7FEA645C1ABF67
:1005C000194610467FEA655C1CBF0B46024650EA9E
:1005D000013406BF52EA033591EA030F41F40021CA
:1005E00030BD00BF90F0000F04BF0021704730B550
:1005F0004FF4806404F132044FF000054FF0000125
:1006000050E700BF90F0000F04BF0021704730B5E5
:100610004FF4806404F1320410F0004548BF4042BA
:100620004FF000013EE700BF42004FEAE2014FEA0F
:1006300031014FEA02701FBF12F07F4393F07F4FEA
:1006400081F06051704792F0000F14BF93F07F4F1C
:10065000704730B54FF4607401F0004521F000415F
:1006600020E700BF50EA010208BF704730B54FF0E5
:1006700000050AE050EA010208BF704730B511F0EA
:10068000004502D5404261EB41014FF4806404F122
:1006900032045FEA915C3FF4DCAE4FF003025FEAA4
:1006A000DC0C18BF03325FEADC0C18BF033202EB2C
:1006B000DC02C2F1200300FA03FC20FA02F001FA86
:1006C00003FE40EA0E0021FA02F11444C1E600BF25
:1006D00070B54FF0FF0C4CF4E06C1CEA11541DBFD8
:1006E0001CEA135594EA0C0F95EA0C0F00F0DEF8A3
:1006F0002C4481EA030621EA4C5123EA4C5350EA88
:10070000013518BF52EA033541F4801143F48013D8
:1007100038D0A0FB02CE4FF00005E1FB02E506F069
:100720000042E0FB03E54FF00006E1FB03569CF0BE
:10073000000F18BF4EF0010EA4F1FF04B6F5007FC4
:1007400064F5407404D25FEA4E0E6D4146EB060636
:1007500042EAC62141EA55514FEAC52040EA5E50BF
:100760004FEACE2EB4F1FD0C88BFBCF5E06F1ED869
:10077000BEF1004F08BF5FEA500E50F1000041EBA0
:10078000045170BD06F0004646EA010140EA02004D
:1007900081EA0301B4EB5C04C2BFD4EB0C0541EA6F
:1007A000045170BD41F480114FF0000E013C00F384
:1007B000AB8014F1360FDEBF002001F0004170BDA8
:1007C000C4F10004203C35DA0C341BDC04F11404C1
:1007D000C4F1200500FA05F320FA04F001FA05F24D
:1007E00040EA020001F0004221F0004110EBD3701A
:1007F00021FA04F642EB06015EEA430E08BF20EA46
:10080000D37070BDC4F10C04C4F1200500FA04F3E8
:1008100020FA05F001FA04F240EA020001F000417A
:1008200010EBD37041F100015EEA430E08BF20EAED
:10083000D37070BDC4F1200500FA05F24EEA020E35
:1008400020FA04F301FA05F243EA020321FA04F064
:1008500001F0004121FA04F220EA020000EBD3701B
:100860005EEA430E08BF20EAD37070BD94F0000F1B
:100870000FD101F00046400041EB010111F4801F4F
:1008800008BF013CF7D041EA060195F0000F18BF00
:10089000704703F00046520043EB030313F4801F3C
:1008A00008BF013DF7D043EA0603704794EA0C0FF6
:1008B0000CEA135518BF95EA0C0F0CD050EA41060C
:1008C00018BF52EA4306D1D181EA030101F0004189
:1008D0004FF0000070BD50EA410606BF10461946B1
:1008E00052EA430619D094EA0C0F02D150EA0136BD
:1008F00013D195EA0C0F05D152EA03361CBF1046FE
:1009000019460AD181EA030101F0004141F0FE419C
:1009100041F470014FF0000070BD41F0FE4141F420
:10092000780170BD70B54FF0FF0C4CF4E06C1CEA20
:1009300011541DBF1CEA135594EA0C0F95EA0C0FD5
:1009400000F0A7F8A4EB050481EA030E52EA033590
:100950004FEA013100F088804FEA03334FF08055B1
:1009600045EA131343EA12634FEA022245EA1115DE
:1009700045EA10654FEA00260EF000419D4208BF8F
:10098000964244F1FD0404F5407402D25B084FEA3C
:100990003202B61A65EB03055B084FEA32024FF4E8
:1009A00080104FF4002CB6EB020E75EB030E22BF45
:1009B000B61A754640EA0C005B084FEA3202B6EB05
:1009C000020E75EB030E22BFB61A754640EA5C00B4
:1009D0005B084FEA3202B6EB020E75EB030E22BF44
:1009E000B61A754640EA9C005B084FEA3202B6EB45
:1009F000020E75EB030E22BFB61A754640EADC0004
:100A000055EA060E18D04FEA051545EA16754FEA65
:100A100006164FEAC30343EA52734FEAC2025FEA83
:100A20001C1CC0D111F4801F0BD141EA00014FF012
:100A300000004FF0004CB6E711F4801F04BF0143E3
:100A40000020B4F1FD0C88BFBCF5E06F3FF6AFAEFF
:100A5000B5EB030C04BFB6EB020C5FEA500C50F18F
:100A6000000041EB045170BD0EF0004E4EEA113112
:100A700014EB5C04C2BFD4EB0C0541EA045170BD19
:100A800041F480114FF0000E013C90E645EA060E5D
:100A90008DE60CEA135594EA0C0F08BF95EA0C0F8B
:100AA0003FF43BAF94EA0C0F0AD150EA01347FF4D3
:100AB00034AF95EA0C0F7FF425AF104619462CE7AA
:100AC00095EA0C0F06D152EA03353FF4FDAE10460D
:100AD000194622E750EA410618BF52EA43067FF45E
:100AE000C5AE50EA41047FF40DAF52EA43057FF4EE
:100AF000EBAE12E74FF0FF3C06E000BF4FF0010CF9
:100B000002E000BF4FF0010C4DF804CD4FEA410C5C
:100B10007FEA6C5C4FEA430C18BF7FEA6C5C1BD029
:100B200001B050EA410C0CBF52EA430C91EA030FAA
:100B300002BF90EA020F0020704710F1000F91EA07
:100B4000030F58BF994208BF90422CBFD8176FEAD5
:100B5000E37040F0010070474FEA410C7FEA6C5CA3
:100B600002D150EA013C07D14FEA430C7FEA6C5CAA
:100B7000D6D152EA033CD3D05DF8040B704700BFD6
:100B80008446104662468C461946634600E000BF24
:100B900001B5FFF7B7FF002848BF10F1000F01BDF6
:100BA0004DF808EDFFF7F4FF0CBF012000205DF8C1
:100BB00008FB00BF4DF808EDFFF7EAFF34BF012046
:100BC00000205DF808FB00BF4DF808EDFFF7E0FFDF
:100BD00094BF012000205DF808FB00BF4DF808ED30
:100BE000FFF7CEFF94BF012000205DF808FB00BF97
:100BF0004DF808EDFFF7C4FF34BF012000205DF879
:100C000008FB00BF4FEA410C7FEA6C5C02D150EA5E
:100C1000013C0AD14FEA430C7FEA6C5C02D152EAF4
:100C2000033C02D14FF0000070474FF001007047C5
:100C30004FEA410212F5001215D211D56FF4787304
:100C4000B3EB625212D94FEAC12343F0004343EAA7
:100C5000505311F0004F23FA02F018BF4042704782
:100C60004FF00000704750EA013005D111F000400C
:100C700008BF6FF0004070474FF00000704700BFA2
:100C80004FEA4102B2F1E04324BFB3F5001CDCF1AE
:100C9000FE5C0DD901F0004C4FEAC0024CEA5070E6
:100CA000B2F1004F40EB830008BF20F00100704715
:100CB00011F0804F21D113F13872BCBF01F0004018
:100CC000704741F480114FEA5252C2F11802C2F14A
:100CD000200C10FA0CF320FA02F018BF40F00100CB
:100CE0004FEAC1234FEAD32303FA0CFC40EA0C007D
:100CF00023FA02F34FEA4303CCE77FEA625307D1BA
:100D000050EA01331EBF4FF0FE4040F440007047F0
:100D100001F0004040F0FE4040F40000704700BF8A
:100D200053B94AB9002908BF00281CBF4FF0FF3152
:100D30004FF0FF3000F07AB9ADF1080C6DE904CE48
:100D400000F006F8DDF804E0DDE9022304B07047A6
:100D50002DE9F0478C460D460446089E002B51D1E4
:100D60008A4217466DD9B2FA82FEBEF1000F0BD04F
:100D7000CEF1200C01FA0EF520FA0CFC02FA0EF767
:100D80004CEA050C00FA0EF44FEA174A250CBCFB9E
:100D9000FAF81FFA87F90AFB18CC45EA0C4508FB5C
:100DA00009F3AB420AD9ED1908F1FF3280F0238133
:100DB000AB4240F22081A8F102083D44ED1AA4B2F2
:100DC000B5FBFAF00AFB105544EA054400FB09F9AB
:100DD000A14509D9E41900F1FF3380F00A81A1454A
:100DE00040F2078102383C44A4EB090440EA084081
:100DF0000021002E61D024FA0EF4002334607360C9
:100E0000BDE8F0878B4207D9002E54D0002186E838
:100E100021000846BDE8F087B3FA83F1002940F0CD
:100E20008E80AB4202D3824200F2FA80841A65EBD4
:100E300003050120AC46002E3FD086E81010BDE827
:100E4000F08712B90127B7FBF2F7B7FA87FEBEF1B8
:100E5000000F34D1EB1B3A0C1FFA87FC0121B3FBC6
:100E6000F2F8250C02FB183345EA03450CFB08F3A6
:100E7000AB4207D9ED1908F1FF3002D2AB4200F2C4
:100E8000D1808046ED1AA3B2B5FBF2F002FB1055FB
:100E900043EA05440CFB00FCA44507D9E41900F122
:100EA000FF3302D2A44500F2B8801846A4EB0C042C
:100EB00040EA08409DE731463046BDE8F087CEF174
:100EC000200405FA0EF307FA0EF720FA04F83A0C9C
:100ED00025FA04F448EA0308B4FBF2F14FEA184596
:100EE00002FB11441FFA87FC45EA044501FB0CF3A1
:100EF000AB4200FA0EF409D9ED1901F1FF3080F090
:100F00008A80AB4240F2878002393D44EB1A1FFAD7
:100F100088F5B3FBF2F002FB103345EA034500FB12
:100F20000CF3AB4207D9ED1900F1FF386FD2AB4299
:100F30006DD902383D44EB1A40EA01418FE7C1F117
:100F4000200722FA07F88B4005FA01F448EA030368
:100F500020FA07FE4FEA134CFD404EEA040EB5FBA3
:100F6000FCF94FEA1E440CFB19551FFA83F844EABA
:100F7000054509FB08F4AC4202FA01F200FA01FA55
:100F800008D9ED1809F1FF3043D2AC4241D9A9F19B
:100F900002091D442D1B1FFA8EFEB5FBFCF00CFB55
:100FA00010554EEA054400FB08F8A04507D9E4189F
:100FB00000F1FF3529D2A04527D902381C4440EA68
:100FC0000940A4EB0804A0FB02894C45C6464D46E7
:100FD00015D312D056B1BAEB0E0364EB050404FA34
:100FE00007F7CB401F43CC40376074600021BDE859
:100FF000F0871846F8E69046E0E6C245EAD2B8EB3C
:10100000020E69EB03050138E4E72846D7E74046BE
:1010100091E78146BEE7014678E702383C4445E760
:10102000084608E7A8F102083D442BE7704700BFD7
:101030002DE9FF4755EC104B0D9FDDF830A0002D3A
:101040000E4691461946B8BF22462B4627F0200788
:10105000BBBF05F100431D4600232D23B8BF144636
:10106000462F0B7004D0452F00D10136022100E03D
:10107000032103AB019302AB00933246534645EC88
:10108000104B00F0CDFC472F804602D119F0010F24
:1010900026D0462F08EB060911D198F80030302BE6
:1010A0000AD10022002320462946FFF779FD18B90E
:1010B000C6F10106CAF80060DAF80030994400224F
:1010C000002320462946FFF76BFD38B93022039BE9
:1010D000994505D9591C03911A70F8E7CDF80C9081
:1010E000039B0E9AA3EB08034046136004B0BDE8CF
:1010F000F087F7B503460029B8BF494203F8022B31
:10110000B4BF2D222B220929427020DD0DF10702E8
:1011100017460A2691FBF6F506FB15113031092D0D
:1011200002F8011C02F1FF34294609DC3031023A91
:1011300004F8011CBA421C4604D3201A03B0F0BDC7
:101140002246E7E712F8011B03F8011BF2E7302201
:101150001C46114404F8022B5970EEE72DE9F04FBC
:101160008DB00C46DDF8588016461F46054601F046
:1011700025FA036804931846FFF73AF800230A9308
:10118000D8F800300590073323F0070303F1080275
:1011900094F818A0D4F800B0C8F80020D3E90023D0
:1011A000C4E91223D4E9128929F000430793CDF84A
:1011B00018804FF0FF32A54BDDE90601FFF722FD55
:1011C000002840F0FB814FF0FF32A04BDDE9060123
:1011D000FFF7FAFC002840F0F1810022002340468E
:1011E0004946FFF7E7FC10B12D2384F84330984BB4
:1011F000984ABAF1470F8CBF9046984603232BF0CC
:101200000402236122604FF00009009733460BAAC5
:101210002146284600F0E2F9013040F093804FF07B
:10122000FF300DB0BDE8F08F61684B1C4BF480625D
:101230003FD106236360002303930AAB029309ABFB
:10124000009349EC108B0DF123032260CDF804A02C
:1012500061682846FFF7ECFE0AF0DF03472B804663
:1012600009D1099BD81C02DB6268934257DDAAF1C1
:10127000020A5FFA8AFABAF1650F099934D801397E
:10128000524604F150000991FFF733FF0A9A831880
:10129000012A8146236102DC2268D10701D501338E
:1012A00023619DF82330002BAFD02D2384F84330E9
:1012B000ABE7BAF1670F02D0BAF1470FBBD189B1E2
:1012C000002303930AAB029309AB009349EC108B04
:1012D0002260CDF804A00DF123032846FFF7A8FEF5
:1012E0008046BEE70123A5E7BAF1660F19D10029B0
:1012F00063680CDD216113B92268D20702D501337E
:101300000B442361099BA3654FF00009C9E713B99A
:101310002268D00701D50233F3E70123F1E74FF04C
:10132000670A099B0A9A934205DB22682361D10769
:10133000E8D50133E5E7002BD4BFC3F10203012355
:101340001344DEE723685A0507D423694246314631
:101350002846B84701302BD161E7BAF1650F40F25A
:10136000E28000220023D4E91201FFF719FC0028D3
:101370003CD00123384A31462846B84701303FF473
:101380004EAF0A9B099A9A4202DB2368D8070FD511
:10139000059B049A31462846B84701303FF43FAFD9
:1013A0004FF0000804F11A090A9B013B984512DB33
:1013B00023689B0709D54FF0000804F11909E36879
:1013C0000B9A9B1A9845C0F2EE80E0680B9B9842FE
:1013D000B8BF184625E701234A4631462846B84794
:1013E00001303FF41CAF08F10108DDE7099B002B39
:1013F00034DC0123184A31462846B84701303FF40F
:101400000EAF099B23B90A9B13B92368D907CFD51F
:10141000059B049A31462846B84701303FF4FFAE99
:101420004FF0000904F11A0A099B5B42994501DB60
:101430000A9B8BE70123524631462846B8470130C4
:101440003FF4EDAE09F10109EEE700BFFFFFEF7FCA
:10145000A89B0008AC9B0008E15601080A9AA36DFE
:101460009A42A8BF1A46002A914638DC04F11A03B2
:101470004FF0000B29EAE9790693D4F858A0AAEBBB
:1014800009039B4533DB0A9B099A9A423ADB23689E
:10149000DA0737D40A9B0999A3EB0A02A3EB0109E7
:1014A0009145A8BF9146B9F1000F33DC4FF0000819
:1014B00029EAE97904F11A0A099A0A9B9B1AA3EB13
:1014C00009039845BFF674AF0123524631462846BA
:1014D000B84701303FF4A3AE08F10108ECE713462A
:1014E000314642462846B8470130BFD197E601232E
:1014F000069A31462846B84701303FF490AE0BF1CA
:10150000010BBAE7059B049A31462846B8470130DB
:10151000C0D184E64B4608EB0A0231462846B8475C
:101520000130C3D17BE60A9A012A01DCDB0737D5FB
:101530000123424631462846B84701303FF46FAE9A
:10154000059B049A31462846B84701303FF467AE00
:1015500000220023D4E91201FFF722FB58B14FF01B
:10156000000804F11A0A0A9B013B98450DDB4B4623
:1015700004F15002EBE60A9B08F10102013B3146FF
:101580002846B8470130F2D149E601235246314698
:101590002846B84701303FF442AE08F10108E2E7BF
:1015A00001234246EBE701234A4631462846B84725
:1015B00001303FF434AE08F1010800E742464B46E3
:1015C00040464946FFF71EFB00283FF42DAE014B75
:1015D000014A0EE6B09B0008B49B00082DE9F047D5
:1015E00091461F468A680B69DDF820809342B8BF98
:1015F0001346C9F8003091F8432006460C4612B154
:101600000133C9F800302368990642BFD9F8003089
:101610000233C9F80030256815F0060507D104F13A
:10162000190AE368D9F800209B1A9D4229DB94F837
:1016300043302268003318BF012392062ED404F1F0
:10164000430239463046C047013021D02368E5685F
:10165000D9F8002003F00603042B08BFAD1AA368D5
:1016600022690CBF25EAE57500259342C4BF9B1A89
:10167000ED184FF000091A344D451BD10020BDE88C
:10168000F0870123524639463046C047013003D126
:101690004FF0FF30BDE8F0870135C2E7E1185A1C72
:1016A000302081F84300224494F8451082F843101A
:1016B0000233C4E70123224639463046C047013091
:1016C000E6D009F10109D7E72DE9F04317460A7E74
:1016D00085B06E2A984606460C460C9B01F1430ED7
:1016E00000F0BC801AD8632A2ED00AD8002A00F055
:1016F000C880582A00F08A8004F1420584F842200C
:101700002AE0642A01D0692AF6D121681A6811F00A
:10171000800F23D0111D1960136827E0732A00F091
:10172000B48008D86F2A2AD0702AE5D10A6842F01E
:1017300020020A6003E0752A21D0782ADCD17822C1
:1017400084F845206E4964E01A6801F14205111DD4
:101750001960136884F842300123A3E011F0400FB0
:1017600002F104011960D7D0B2F90030002B03DA7E
:101770002D225B4284F8432062490A2217E0206848
:10178000196810F0800F03D0081D18600B6806E080
:1017900010F0400F01F104001860F7D00B88594990
:1017A0006F2A14BF0A220822002084F843006568CB
:1017B000A560002DC0F29C80206820F0040020600D
:1017C000002B3FD1002D40F095807546082A0BD1A3
:1017D0002368DA0708D5236962689A42DEBF30239E
:1017E00005F8013C05F1FF35AEEB05032361CDF8AB
:1017F00000803B4603AA21463046FFF7EFFE01304A
:1018000055D14FF0FF3005B0BDE8F08381F8452099
:101810003C492268186812F0800F00F104051D6031
:1018200001D0036802E05506FBD50388D00744BF0A
:1018300042F0200222601BB9226822F020022260BE
:101840001022B1E77546B3FBF2F002FB1033CB5C1C
:1018500005F8013D03460028F5D1B7E708681A6886
:10186000496910F0800F04D0101D186013681960CA
:1018700007E010F0400F02F1040018601368F6D082
:101880001980002323617546B1E71A68111D19609C
:101890001568626800212846FEF7B2FC08B1401BBB
:1018A000606063682361002384F843309FE7236905
:1018B0002A4639463046C0470130A2D023689B07EC
:1018C00007D5002504F11909E368039A9B1A9D4284
:1018D00005DBE068039B9842B8BF184693E70123F5
:1018E0004A4639463046C04701308AD00135EBE7D9
:1018F000002BA7D10B7884F8423004F1420565E74C
:10190000C99B0008B89B00082DE9F74F03690C69D3
:101910009C42804600F38280013C01F114074FEAAB
:10192000840E00F1140657F8245056F8240006EBF4
:101930000E03013507EB0E090193B0FBF5F595B3E6
:101940004FF0000A3846B446D34650F8042B93B201
:1019500005FB03A34FEA134A9BB2ABEB0303120C44
:10196000BCF800B005FB02A213FA8BF34FEA124A4F
:101970001FFA82FBDCF80020CBEB124202EB234281
:101980009BB243EA024381454FEA224B4CF8043BA9
:10199000DBD256F80E3033B9019B043B9E421A4607
:1019A00030D3C8F81040404601F03BF8002825DB52
:1019B000013530464FF0000E57F8042BD0F800C028
:1019C00093B2AEEB0303120C13FA8CF3C2EB1C427E
:1019D00002EB23429BB243EA0243B9454FEA224E4F
:1019E00040F8043BE8D256F8242006EB84032AB9D9
:1019F000043B9E421A460BD3C8F81040284603B059
:101A0000BDE8F08F1268043B002ACAD1013CC5E74B
:101A10001268043B002AEFD1013CEAE70020EEE720
:101A20002DE9F04F57EC106B97B0CDE90067466A8F
:101A3000079104460A920F93209D3EB9102000F0B2
:101A4000CBFD6062466086600660C660636A1968A6
:101A500051B15A684A60012393408B60204600F0E0
:101A60000AFE636A00221A60019B002BBFBF01239C
:101A70002B60019B23F00043B2BF019300232B6036
:101A8000DDF80480A84B33EA08031BD10F9A42F219
:101A90000F731360009B23B9C8F31300002800F0F4
:101AA0007885219B53B9A14B21E0A14B02930833C8
:101AB000219A1360029817B0BDE8F08F9B4B0293F8
:101AC0000333F5E7DDE9006700220023304639469D
:101AD000FFF766F8814660B10F9A01231360219BDE
:101AE000002B00F05385934B219A1360013B029326
:101AF000E0E714AA15A947EC106B204601F009F89D
:101B0000C8F30A558246002D7ED0C7F3130343F075
:101B10007F51304641F44011A5F2FF35CDF8489091
:101B20000022854BFEF720FC79A3D3E90023FEF7C2
:101B3000CFFD79A3D3E90023FEF718FC064628461B
:101B40000F46FEF75FFD76A3D3E90023FEF7C0FD45
:101B500002460B4630463946FEF708FC06460F465D
:101B6000FFF766F800228346002330463946FFF728
:101B700021F858B15846FEF745FD02460B4630465F
:101B80003946FFF70DF808B90BF1FF3BBBF1160F13
:101B900059D86A4901EBCB01DDE90023D1E9000105
:101BA000FFF726F8002850D00BF1FF3B00230E93DF
:101BB000149B5D1B6B1E069345BFC5F10103059386
:101BC000002300234CBF06930593BBF1000F3EDBBF
:101BD000069BCDF82CB05B44069300230893079B2B
:101BE000092B00F2AF80052BC4BF043B0793079B72
:101BF000A3F10203CCBF00260126032B00F2AE8026
:101C0000DFE803F082842F77159B149D1D4405F2B5
:101C10003243202B11DD009A05F21240C3F140033C
:101C200022FA00F008FA03F31843FEF7DBFC012365
:101C3000A1F1F871013D129372E7C3F12000009BFE
:101C400003FA00F0F1E70123B1E70E90B0E7059B3E
:101C5000A3EB0B030593CBF10003089300230B9335
:101C6000BDE7012309930A9B002B7ADD04930393BC
:101C7000656A00226A60042101F114029A4275D952
:101C80006968204600F0C3FC636A28601B68029301
:101C9000039B0E2B00F2E580002E00F0E2809DED0C
:101CA000007BBBF1000F8DED0C7B74DD234A0BF044
:101CB0000F034FEA2B1602EBC303F006D3E90089AA
:101CC00059D51F4B51EC170BD3E90823FEF72AFE19
:101CD000CDE9000106F00F060325194F002E4CD167
:101CE00042464B46DDE90001FEF71CFECDE900014E
:101CF0006AE0012309930A9B5B4404930133012B9F
:101D00000393B8BF0123B3E70023ABE70023F1E758
:101D100061436F63A787D23FB3C8608B288AC63FF1
:101D2000FB799F501344D33F0000F07FE39B0008F2
:101D3000DA9B0008E25601080000F83F109C0008FA
:101D4000E89B000801260023079309964FF0FF3314
:101D500004930393002212230A9289E70123099333
:101D6000F4E70123049303931A46F5E76A68013206
:101D70006A60490080E70225AFE7F10708D54046D1
:101D80004946D7E90023FEF7A3FC01358046894682
:101D900076100837A2E700F09D80CBF100069F4B3C
:101DA0009F4F06F00F0203EBC203D3E90023DDE9E6
:101DB0000C01FEF78DFCCDE9000136110023022550
:101DC000002E7CD1002B91D10E9B002B00F0848043
:101DD000DDE900890022934B40464946FEF7EAFEC2
:101DE000002879D0039B002B76D0049B002B34DD98
:101DF00000228D4B40464946FEF76AFCCDE90001C2
:101E0000049E0BF1FF3701352846FEF7FBFBDDE9A9
:101E10000023FEF75DFC0022844BFEF7A7FA804604
:101E2000A1F15079002E5AD10022814BDDE9000149
:101E3000FEF79AFA42464B46CDE90001FEF7D8FE7E
:101E4000002840F09B82424609F10043DDE9000191
:101E5000FEF7B0FE002840F08F82DDE90C23CDE9CB
:101E60000023159B002BC0F25081BBF10E0F00F335
:101E70004C816A4B03EBCB03D3E900890A9B002B0F
:101E800080F2DA80039B002B00F3D68040F073824F
:101E90000022674B40464946FEF71AFCDDE9002365
:101EA000FEF79CFE039E3746002840F04A82029BC4
:101EB000029A5D1C312313700BF1010B45E2F2070E
:101EC00005D5D7E90023FEF703FC01350123761081
:101ED000083775E7022577E75F46039E94E7029A85
:101EE0004E4B32441392099A711E002A48D003EBDC
:101EF000C103D3E9002300204E49FEF713FD4246FB
:101F00004B46FEF731FA029D80468946DDE9000125
:101F1000FEF78EFE0646FEF775FB02460B46DDE930
:101F20000001FEF721FA303605F8016B42464B46B8
:101F3000CDE90001FEF73EFE002865D1DDE9002372
:101F400000203849FEF710FA42464B46FEF732FEB3
:101F5000002840F0BA80139B9D423FF47EAF0022E0
:101F6000314B40464946FEF7B3FB00228046894686
:101F70002D4BDDE90001FEF7ABFBCDE90001C5E724
:101F800003EBC10142464B46D1E90001FEF7A0FB3D
:101F9000CDE91001029DDDE90001FEF749FE06468C
:101FA000FEF730FB303602460B46DDE90001FEF756
:101FB000DBF905F8016B139BAB42804689464FF075
:101FC000000225D11B4BDDE91001FEF7CFF90246D7
:101FD0000B4640464946FEF70BFE002875D1DDE969
:101FE000102300201349FEF7BFF902460B46404676
:101FF0004946FEF7DFFD00283FF42FAF15F8013CFE
:10200000302B05F1FF3201D0BB464DE01546F5E718
:10201000054BFEF75DFBCDE90001BCE7109C000815
:10202000E89B00080000F03F0000244000001C4036
:10203000000014400000E03FDDE90067029D4246D9
:102040004B4630463946FEF76DFCFEF7F1FD009039
:10205000FEF7D8FA42464B46FEF73AFB02460B46DD
:1020600030463946FEF780F9009E039F303605F86A
:10207000016B029EAE1BB74202460B4638D1FEF7FB
:1020800075F906460F4602460B4640464946FEF79E
:1020900091FDC8B932463B4640464946FEF780FDB1
:1020A00010B1009BDB070FD45146204600F0E3FA45
:1020B00000230F9A2B700BF101031360219B002B5F
:1020C0003FF4F8AC1D60F5E45F4615F8012C392AA1
:1020D00005F1FF3306D1029A9A4207D130231370DB
:1020E000013713461A7801321A708DE71D46ECE766
:1020F0000022A44BFEF7ECFA0022002306460F460E
:10210000FEF74EFD00289AD0CEE7099A002A00F08B
:10211000CD80079A012A00F3AF80129A002A00F0BE
:10212000A78003F23343089E059D059A1A44059241
:10213000069A01211A442046069200F03CFB07460D
:10214000002D0CDD069B002B09DDAB42059AA8BFD4
:102150002B46D21A0592069AED1AD31A0693089BBB
:10216000F3B1099B002B00F0A580002E10DD39464D
:102170003246204600F0B6FB52460146074620464E
:1021800000F022FB51468046204600F074FAC24619
:10219000089B9A1B04D05146204600F0A3FB8246C0
:1021A0000121204600F007FB0B9B002B064640F365
:1021B00083801A460146204600F094FB079B012BC2
:1021C00006467CDD4FF00008336906EB830318698F
:1021D00000F0A3FAC0F12000069B184410F01F0085
:1021E00000F09680C0F12003042B40F38780059B0C
:1021F000C0F11C0003440593069B05440344069369
:10220000059B002B05DD51461A46204600F0B8FB21
:102210008246069B002B05DD31461A46204600F01B
:10222000AFFB06460E9B002B74D03146504600F0A3
:10223000F8FB00286EDA002351460A22204600F0FF
:1022400031FA099B0BF1FF3B8246002B00F0A8817D
:10225000002339460A22204600F024FA049B002B72
:10226000074600F3C880079B022B40F3C48059E067
:10227000149BC3F1360356E7039B5E1E089BB342D3
:10228000BFBF089B0896F21A0B9BB6BF9B189E1BFC
:102290000B93039BB8BF0026002BB9BF059B039A85
:1022A000059D039BBCBF9D1A00233EE7089E059D2C
:1022B000099F45E7089A6EE7079B012B19DC009BF5
:1022C000BBB9019BC3F313039BB9019B23F00043EC
:1022D0001B0D1B0583B1059B01330593069B013341
:1022E00006934FF001080B9B002B7FF46DAF01208C
:1022F00072E74FF00008F6E79846F4E780D0059AB9
:102300001C331A440592069A1A441D44134676E774
:102310000346F4E7039B002B36DC079B022B33DDDF
:10232000039B0493049B63B931460522204600F0C9
:10233000B9F901460646504600F073FB00283FF706
:10234000B6AD0A9B029D6FEA030B0023039331464F
:10235000204600F090F9002F3FF4A6AE039B2BB16E
:10236000BB4203D01946204600F085F93946204685
:1023700000F081F998E600263746E2E7BB4637468B
:1023800095E500BF00002440099B93BB039B049389
:10239000029D31465046FFF7B7FA00F1300905F8C3
:1023A000019B029B049AEB1A9A4200F3DC80029B89
:1023B000012AACBF9B180133984600230393514672
:1023C0000122204600F0DCFA3146824600F029FB6B
:1023D000002800F38D8003D119F0010F40F08880B0
:1023E000454615F8013C302B05F1FF32AFD11546BB
:1023F000F7E7039B0493002D05DD39462A46204666
:1024000000F0BEFA0746B8F1000F4CD079682046BC
:1024100000F0FDF83A6902320546920007F10C011E
:102420000C3000F0E9F801222946204600F0A8FA15
:10243000009BDDF80880039703F00103074605932E
:1024400031465046FFF760FA0399054600F130091E
:10245000504600F0E6FA3A4600903146204600F039
:10246000FAFAC368024603BB01460690504600F0E4
:10247000D8FA069A034611462046069300F0FBF868
:10248000069BA3B9079A92B9059A82B9B9F1390F97
:1024900029D0009B002B01DD05F1310908F1010570
:1024A00088F8009053E73846C2E70123E3E7009A33
:1024B000002A04DB25D1079A1ABB059A0ABB002B18
:1024C000ECDD51460122204600F05AFA31468246A0
:1024D00000F0A7FA002803DCE0D119F0010FDDD0ED
:1024E000B9F1390FD8D1392388F8003008F1010843
:1024F000454615F8013C392B05F1FF323BD001333D
:1025000040E0002B08F1010505DDB9F1390FEAD0F3
:1025100009F10109C4E7029B049A05F8019CEB1A32
:102520009342A8463FF44BAF514600230A2220466F
:1025300000F0B8F8039B0399BB4282464FF00003BA
:102540004FF00A02204604D100F0ACF80390074691
:1025500076E700F0A7F8002303900A2239462046C8
:1025600000F0A0F8F3E7514600230A22204600F0CD
:1025700099F882460DE7029B934205D1029A0BF12E
:10258000010B31231370E2E61546B2E7094BFFF762
:10259000AEBA219B002B7FF488AA074BFFF7A7BA9E
:1025A000049B002B3FF7F4AE079B022B7FF7F0AEA6
:1025B000B8E600BFE1560108DA9B0008044B1B682F
:1025C000186A044B002808BF1846F030704700BF57
:1025D0000000002064000020024B0146186800F053
:1025E00043BB00BF00000020024B0146186800F00A
:1025F000EDBA00BF0000002010B5431E0A4491420E
:1026000000D110BD11F8014B03F8014FF7E770B589
:10261000456A04460E463DB91020FFF7DDFF6062B3
:10262000456085600560C560656AEB6883B1636A73
:10263000DB6853F82600B8B9012101FA06F56A1DD6
:102640009200204600F0B4FA60B1466085600EE06A
:1026500021220421204600F0ABFA636AE860DB68BF
:10266000002BE4D1002070BD026843F8262000232F
:102670000361C36070BD70B5446A06460D463CB93F
:102680001020FFF7A9FF7062446084600460C4609A
:102690003DB1736A6A68DB6853F82210296043F819
:1026A000225070BD2DE9F0410D691F4606460C46CB
:1026B00001F1140E0023DEF8000081B202FB01716B
:1026C0000F0C000C02FB007089B2013301EB0041DA
:1026D0009D424FEA10474EF8041BECDCD7B1A368CB
:1026E0009D4212DB616830460131FFF790FF22699D
:1026F000023204F10C01804692000C30FFF77CFF9F
:1027000021463046FFF7B7FF444604EB8503013509
:102710005F6125612046BDE8F081020C120403468A
:10272000B2B90304102013F07F4F04BF1B0208301E
:1027300013F0704F04BF1B01043013F0404F04BF6F
:102740009B000230002B06DB5B0003D50130704795
:102750000020E8E720207047036813F007020146D5
:102760000BD0DA0723D4980749BF5B089B080120E8
:102770000B605CBF0B600220704798B2A8B91B0CBD
:10278000102013F0FF0F04BF1B0A08301A0704BF04
:102790001B0904309A0704BF9B080230DA0702D4F1
:1027A0005B0806D001300B6070471046E9E7002057
:1027B00070472020704710B50C460121FFF727FF16
:1027C00001224461026110BD2DE9F74F14460A69E8
:1027D00023699A42B8BF0B468946BCBFA1461C4636
:1027E000D9F81070D4F810A0D9F80830D9F804102E
:1027F00007EB0A069E42C8BF0131FFF708FF00F150
:10280000140505EB86082B460022434516D304F138
:10281000140209F1140102EB8A0301EB870701930B
:10282000019C944213460CD8002E03DD58F8043D59
:10283000002B54D0066103B0BDE8F08F43F8042BA1
:10284000E3E7B3F800A00432BAF1000F20D0AE469F
:1028500089464FF0000C59F8044BBEF800B0A3B203
:102860000AFB03B34FEA144BDEF8004063444FEA1F
:10287000144C0AFB0BC404EB13449BB243EA04431D
:102880004F454FEA144C4EF8043BE4D8CEF800C054
:1028900032F8029CB9F1000F1FD02B68AE468C466F
:1028A0004FF0000ABCF80040BEF802B009FB04B4C7
:1028B000A2449BB243EA0A434EF8043B5CF8043B53
:1028C000BEF800401B0C09FB034303EB1A436745AA
:1028D0004FEA134AE6D8CEF800300435A0E7013EAF
:1028E000A2E700002DE9F843154612F00302064660
:1028F0000F4607D0013A214C002354F82220FFF75D
:10290000D1FE0746AD1035D0746A3CB91020FFF7F0
:1029100063FE7062446084600460C460D6F8248002
:10292000D8F808404CB940F271213046FFF743FF18
:102930000023C8F80800044603604FF00008EB07C6
:102940000AD5394622463046FFF73EFF39468146D2
:102950003046FFF790FE4F466D100BD0206838B917
:10296000224621463046FFF72FFF2060C0F8008046
:102970000446E4E73846BDE8F88300BFD89C000869
:102980002DE9F0470C464FEA621A236949680AEBC1
:102990000309A3680746164609F10105AB4231DB7E
:1029A0003846FFF734FE0022804600F1140311463A
:1029B00052452ADB20692AEAEA7A04F1140116F06A
:1029C0001F0203EB8A0301EB800E22D0C2F1200C20
:1029D00000200E689640304343F8040B51F8040B76
:1029E0008E4520FA0CF0F4D8186008B109F1020500
:1029F000013D3846C8F810502146FFF73CFE4046DE
:102A0000BDE8F08701315B00C8E743F822100132CE
:102A1000CEE7043B51F8042B43F8042F8E45F9D838
:102A2000E6E703690A699B1A30B50CD192001430AD
:102A300014318418114454F8045D51F8042D954262
:102A400003D005D30123184630BDA042F3D3FAE7E3
:102A50004FF0FF33F7E72DE9F0470D4607461146E3
:102A600028461446FFF7DDFF061E08D131463846DA
:102A7000FFF7CDFD012303614661BDE8F087A4BFE8
:102A800023462C4638466168A6BF1D46002601260F
:102A9000FFF7BDFD2B69C660266905F1140904F135
:102AA000140202EB860709EB830800F114054FF0CE
:102AB000000C52F804AB59F8044B1CFA8AF1A3B28B
:102AC000C91A230CC3EB1A4303EB214389B24FEA23
:102AD000234CC84541EA0343964645F8043BE8D8F1
:102AE000BE4505D355F8043D8BB10661BDE8F087BE
:102AF0005EF8041B1CFA81F31A1402EB11429BB21C
:102B000043EA02434FEA224C45F8043BE8E7013E22
:102B1000E8E72DE9F7430E46012159EC108B1546E5
:102B2000FFF775FDC9F30A540746C9F3130334BB15
:102B30000193B8F1000F27D002A840F8088DFFF7E5
:102B40000BFE0099F0B1019AC0F1200302FA03F3E1
:102B50000B43C2407B610192019BBB61002B14BF00
:102B6000022101213961C4B1A4F233440444346028
:102B7000C0F135002860384603B0BDE8F08343F467
:102B80008013D5E77961E7E701A8FFF7E5FD019B31
:102B90007B61012139612030E5E707EB8103A0F279
:102BA000324030601869FFF7B8FDC0EB4110E1E733
:102BB00038B502FB01F4214600F056F8054618B17D
:102BC0002246002100F0D0F8284638BD38B5054629
:102BD000002945D051F8043C0C1F002BB8BFE41865
:102BE00000F0CAF81F4A1368104633B963601460D6
:102BF0002846BDE8384000F0C0B8A3420CD921688F
:102C00006218934204BF1A685B68636004BF52187D
:102C100022600460ECE713465A680AB1A242FAD96E
:102C200019685818A0420BD12068014458188242F4
:102C30001960DDD1106852685A6001441960D7E705
:102C400002D90C232B60D3E7206821188A4204BFE5
:102C500011685268626004BF091821605C60C7E7B0
:102C600038BD00BFBC85002070B5CD1C25F0030524
:102C700008350C2D38BF0C25002D064601DBA94276
:102C800003D90C233360002070BD00F075F8234A8F
:102C90001468214691B9224C23681BB9304600F0D4
:102CA00041F820602946304600F03CF8431C26D10C
:102CB0000C233360304600F060F8E4E70B685B1BE0
:102CC0001AD40B2B0FD90B60CD50CC18304600F026
:102CD00054F804F10B00231D20F00700C31A1BD089
:102CE0005A42E25070BD8C420DBF63684B6863600E
:102CF000136018BF0C46E9E70C464968CAE7C41CD4
:102D000024F00304A04205D0211A304600F00AF84E
:102D10000130CDD02560D9E770BD00BFBC85002053
:102D2000C085002038B5064C0023054608462360C0
:102D300000F032F8431C02D1236803B12B6038BD88
:102D40000C86002082B001B901A942B14BB11378C1
:102D50000B601278101C18BF012002B0704710469B
:102D6000FBE76FF00100F8E702440346934200D10D
:102D7000704703F8011BF9E77047704749B1FF2A14
:102D800085BF8A2303600A704FF0FF3098BF01208F
:102D900070470846704700000D4B196810B5024691
:102DA00009B90C4919601868694602448A4206D874
:102DB00009490A4C0968A14208D08A4206D905F09F
:102DC00095FF0C2303604FF0FF3010BD1A6010BD5B
:102DD000C4850020B88F0020D0010020ADDEFECADF
:102DE00010B5084B044618684FF47A73B0FBF3F043
:102DF00000F0A2FA002221464FF0FF3000F05CFA0A
:102E0000002010BD9885002008B50B4B1A6842F4CD
:102E100000721A601A6842F480621A601A6842F4FA
:102E200080721A60032000F035FA0020FFF7D8FF07
:102E300005F015FD002008BD003C0240024A136861
:102E400001331360704700BF10860020014B1868E3
:102E5000704700BF1086002037B50190FFF7F6FFDE
:102E6000019C631C054618BF0134FFF7EFFF401BB0
:102E7000A042FAD303B030BD10B50446002800F0DC
:102E80009980036C23B9436480F83C3005F018FD49
:102E9000236CDB0600F18C80236C23F4885323F031
:102EA000020343F002032364434B5A6822F4403286
:102EB0005A605A6861680A435A60236821695A68EF
:102EC00022F480725A605A6842EA01225A605A68B3
:102ED000A16822F040725A605A680A435A609A68A0
:102EE000E16822F400629A609A680A439A60334962
:102EF000A26A8A4250D0996821F0706199609968FD
:102F00000A439A609A68E16A22F040529A609A688D
:102F10000A439A609A68A16922F002029A609A684C
:102F200042EA41029A60226A002A3DD05A68616AE8
:102F300042F400625A605A6822F460425A605A6849
:102F4000013942EA41325A60DA6AE16922F47002D8
:102F5000DA62DA6A013942EA0152DA629A68216B6E
:102F600022F400729A609A6842EA41229A609A6852
:102F7000616922F480629A609A68002042EA8122A4
:102F80009A606064236C23F0030343F0010323641D
:102F9000002384F83C3010BD9A6822F070629A6079
:102FA0009A6822F04052B4E75A6822F40062CAE7F5
:102FB0000120EDE7012010BD002301400100000FBA
:102FC00082B00023019390F83C30012B4ED00123B6
:102FD00080F83C3003689A68D10705D59A68D20713
:102FE00014D4002002B070479A68214942F00102CF
:102FF0009A60204A1268B2FBF1F202EB420201929F
:10300000019A002AEAD0019A013AF8E7026C22F408
:10301000E06222F0010242F4807202645A685105B3
:1030200041BF026C22F4405242F480520264026CAE
:1030300012F480521CBF426C22F00602426400224D
:1030400080F83C206FF022021A600B4A5268D206C8
:1030500008D1986810F04050C3D19A6842F080427D
:103060009A60BFE7054A9342BBD1F2E70220B9E775
:1030700040420F00988500200023014000200140BD
:1030800090F83C30012B17D0012380F83C300368C6
:103090009A6822F001029A609B68DB0707D4036CF0
:1030A00023F4885323F0010343F001030364002356
:1030B00080F83C30184670470220704703689A68D1
:1030C00070B5560504460D460BD59B68D80508D546
:1030D000236C43F020032364002384F83C30012058
:1030E00070BDFFF7B3FE064623681A6892070CD539
:1030F0006FF012021A60226C42F4007222649A6825
:1031000012F0405F13D0002070BD691CEDD045B9AE
:10311000236C43F004032364002384F83C30032031
:1031200070BDFFF793FE801B8542DDD2F0E7A269F8
:10313000002AE8D1DA6A12F4700F02D09B685B05AE
:10314000E1D4236C23F480732364206C10F480504A
:10315000D9D1236C43F00103236470BD0368D86C9C
:1031600070470000F7B50023019390F83C30012B25
:103170006AD00D6804688A680123092D80F83C3004
:10318000AEB22AD906EB4603E7681E3B4FF0070EA6
:103190000EFA03FE27EA0E07E760E76802FA03F378
:1031A0003B43E3604A68062A4FEA820325D813446A
:1031B000676B591F1F238B4027EA03036363626B0E
:1031C00006FA01F1114361632D4B9C4234D0002378
:1031D00080F83C30184603B0F0BD276905EB450385
:1031E0004FF0070E0EFA03FE27EA0E072761276944
:1031F00002FA03F33B432361D4E70C2A0ED81344AD
:10320000216BA3F123021F23934021EA03032363CD
:10321000236B06FA02F21A432263D5E71344E16AEC
:10322000413B1F229A4021EA0202E262E26A06FA68
:1032300003F11143E162C7E7122D07D1114A536828
:1032400043F480035360C2E70220C4E70E4B9D4263
:1032500001D0112DBBD10B494A689D4242F40002B6
:103260004A60B4D1094B0A4A1B68B3FBF2F20A2345
:1032700053430193019B002BA9D0019B013BF8E72D
:10328000002001400023014012000010988500201A
:1032900040420F00074AD36823F4E0631B041B0C71
:1032A00043F0BF63000243F4003300F4E0600343E3
:1032B000D360704700ED00E0174B30B5DC68C4F315
:1032C0000224C4F10703251D042B28BF0423062D67
:1032D0004FF0010505FA03F303F1FF338CBF033C04
:1032E00000241940A14005FA04F4013C22400028C2
:1032F00042EA01024FEA0212AFBF00F1604000F063
:103300000F00064BD2B2A5BF00F56140D2B21A54ED
:1033100080F8002330BD00BF00ED00E014ED00E0B8
:103320004209012300F01F0003FA00F0014B43F8AB
:103330002200704700E100E00138B0F1807F0AD23E
:10334000064B074A5860F02182F82310002007221C
:1033500098601A6070470120704700BF10E000E0DD
:1033600000ED00E0044B1A6804280CBF42F0040290
:1033700022F004021A60704710E000E0704708B5C0
:10338000FFF7FCFF08BD00000368DAB223F47F7387
:1033900023F003031821103AB2FBF1F20449032A87
:1033A00088BF0433895C8365C165806D704700BF49
:1033B000ED9D000870B50446FFF748FD0546002C5A
:1033C00071D0002384F834302268022384F8353029
:1033D000136823F00103136021680B68D8073CD4FD
:1033E0000B68324D6268A0691D40A3681343E26810
:1033F00013432269134362691343E269034313438E
:10340000226A1343626A042A43EA050301BF266B5A
:10341000E56A35432B430B604B69042A23F007030D
:1034200043EA02030BD1A26AE56A13433DB1F8B93E
:10343000012A2DD001D3022A01D1EA012BD44B61FC
:103440002046FFF7A1FFE26D3F23934083600020F9
:103450000123606584F8353070BDFFF7F7FC401B31
:103460000528B9D920236365032084F8350070BD91
:10347000B0F5005F13D1032AE1D801A050F822F083
:10348000973400083B340008973400089134000852
:10349000B5F1C07FD3D1402363650120E5E7022A5F
:1034A000F9D9032AC8E7012070BD00BF3F8010F0A2
:1034B00090F83530022B03D08023436501207047FC
:1034C0000268052380F83530136823F00103136088
:1034D00000207047F7B5002301935A4B856D1F6894
:1034E000C36D2E6808229A40164204460CD001682B
:1034F0000868400708D5086820F004000860AA6042
:10350000626D42F00102626501229A40164208D0C3
:1035100021684969090641BFAA60626D42F0020252
:10352000626504229A40164208D02168096888071B
:1035300041BFAA60626D42F00402626510229A40A7
:10354000164210D02368196809070CD5AA601A68BA
:10355000500335D51B68190301D4236C00E0A36C1C
:103560000BB120469847E16D20228A40164238D0A0
:1035700023681868C60634D5AA6094F83520052A51
:103580001A6825D122F016021A605A6922F08002C8
:103590005A61226C0AB9A26C1AB11A6822F00802A8
:1035A0001A603F238B40AB60002384F83430012342
:1035B00084F83530236D0BB12046984703B0F0BD39
:1035C0001A68D2055EBF1A6822F008021A60C4E7C2
:1035D000500328D51B68190332D4636C0BB1204605
:1035E0009847636D002BE9D0636DDA0719D5052381
:1035F000226884F83530136823F0010313604FF418
:103600001653B7FBF3F7019B01339F42019302D39B
:103610001368DB07F7D4002384F83430012384F8DF
:103620003530E36CC7E71A6812F4807208D1196864
:1036300021F010011960012384F8342084F835301A
:10364000E36BCBE7988500202DE9F04F85B00B6840
:10365000DFF8C4816E4ADFF8C491019300234FF074
:10366000010E019C0EFA03FE0EEA0406B64540F078
:10367000B6804C6824F01007022F16D14FEAD30A07
:1036800000EB8A0A03F0070BDAF820504FEA8B0BA5
:103690004FF00F0C0CFA0BFC25EA0C0C0D6905FA27
:1036A0000BF545EA0C05CAF820504FEA430A0325FA
:1036B000D0F800B005FA0AF5ED4304F0030C0BEA6C
:1036C000050B0CFA0AFC013F4CEA0B0C012FC0F869
:1036D00000C011D8876807EA050BCF6807FA0AFC13
:1036E0004CEA0B078760476827EA0E0EC4F3001701
:1036F0009F4047EA0E074760C7683D408F6807FA5A
:103700000AF73D43C560E50069D54FF0000BCDF8E1
:103710000CB0D8F844703F4D47F48047C8F8447067
:10372000D8F8447007F480470397039F23F00307FA
:1037300007F1804707F59C3703F0030CD7F808A082
:103740004FEA8C0C4FF00F0E0EFA0CFEA8422AEA3C
:103750000E0E4BD005F58065A84249D005F5806571
:10376000A84247D005F58065A84245D005F580659B
:10377000A84243D0484543D005F50065A84241D052
:1037800005F58065A8423FD005F58065A8423DD08B
:1037900005F58065A84214BF0A25092505FA0CF530
:1037A00045EA0E05BD601568F74314F4803F0CBF71
:1037B0003D4035431560556814F4003F0CBF3D4053
:1037C00035435560956814F4801F0CBF3D40354368
:1037D0009560D568A40254BF3D403543D5600133A0
:1037E000102B7FF43CAF05B0BDE8F08F5D46D5E708
:1037F0000125D3E70225D1E70325CFE70425CDE74F
:103800000525CBE70625C9E70725C7E70825C5E74E
:10381000003C014000000240003802400014024019
:103820000369194214BF0120002070470AB1816169
:1038300070470904FBE7000037B500230193184BDC
:10384000184C1A6C42F080521A641B6C03F08053BF
:103850000193019B144B01221A60FFF7F7FA05460A
:103860006368DA030BD5114B0E4C01221A60FFF787
:10387000EDFA054663689B030AD5002006E0FFF7D2
:10388000E5FA401BB0F57A7FEAD9032003B030BDDA
:10389000FFF7DCFA401BB0F57A7FEBD9F5E700BF04
:1038A000003802400070004040000E4244000E42CA
:1038B000F7B5044610B9012003B0F0BD0368D8077E
:1038C0003BD42368990700F1848023681E0700F128
:1038D000C68023685D072AD500230193AA4BAB4D10
:1038E0001A6C42F080521A641B6C03F080530193EF
:1038F000019B2B6843F480732B60FFF7A7FA064601
:103900002B68DA0540F1CD80A3689F4D012B40F074
:10391000CF802B6F43F001032B67FFF797FA9A4D87
:10392000064641F288372B6F9B0740F1E280A2697F
:10393000002A40F0E5800020BEE7934B9A6802F031
:103940000C02042A07D09A6802F00C02082A0AD155
:103950005B685A0207D58C4B1B689B03B1D5636823
:10396000002BAED1A7E76368874DB3F5803F11D137
:103970002B6843F480332B60FFF768FA824D0646CC
:103980002B689F039DD4FFF761FA801B6428F7D949
:10399000032091E7B3F5A02F04D12B6843F48023D3
:1039A0002B60E5E72A6822F480322A602A6822F434
:1039B00080222A60002BDFD1FFF748FA06462B68E9
:1039C00098037FF57EAFFFF741FA801B6428F6D994
:1039D000DEE76D4B9A6812F00C0F07D09A6802F080
:1039E0000C02082A12D15B6859020FD4664B1A6880
:1039F000920703D5E268012A7FF45DAF1A68216956
:103A000022F0F80242EAC1021A605EE7E268604B07
:103A1000B2B101221A60FFF719FA5B4D06462B6816
:103A20009B0707D52B68226923F0F80343EAC203FA
:103A30002B604AE7FFF70AFA801B0228EFD9A7E7B5
:103A40001A60FFF703FA504D06462B689F077FF573
:103A50003CAFFFF7FBF9801B0228F6D998E76269B3
:103A60004C4B7AB101221A60FFF7F0F9464D064639
:103A70006B6F98073FF52DAFFFF7E8F9801B022821
:103A8000F6D985E71A60FFF7E1F93F4D06466B6FFF
:103A900099077FF51EAFFFF7D9F9801B0228F6D9E9
:103AA00076E7FFF7D3F9801B02287FF629AF6FE78F
:103AB000052B04D12B6F43F004032B6729E72A6FF2
:103AC00022F001022A672A6F22F004022A67002BE3
:103AD0007FF423AFFFF7BAF941F2883706462B6F20
:103AE00098077FF524AFFFF7B1F9801BB842F6D9EC
:103AF0004EE7FFF7ABF9801BB8427FF614AF47E7FC
:103B0000214DAB6803F00C03082B3FF4D4AE224EDA
:103B10000023022A33602AD1FFF798F907462B6861
:103B200099011ED4226AE3691343626A43EA82134D
:103B3000E26A43EA0263A26A134C5208013A43EA7A
:103B400002436B6001233360FFF780F90546236869
:103B50009A013FF5F0AEFFF779F9401B0228F6D93C
:103B600016E7FFF773F9C01B0228D8D910E7FFF753
:103B70006DF904462B689B017FF5DDAEFFF766F912
:103B8000001B0228F6D903E700380240007000400D
:103B900000004742800E474260004742134908B583
:103BA0008B6803F00C03042B03D0082B03D01048C0
:103BB00008BD104808BD4A684B68496813F4800383
:103BC00014BF0C480A48C1F3881118BF002302F043
:103BD0003F02A1FB0001FDF7A3F8044B5B68C3F3B0
:103BE000014301335B00B0FBF3F008BD0038024035
:103BF0000024F40040787D012DE9F0410D46044693
:103C000010B90120BDE8F081444B1A6802F00F02A0
:103C10008A4228D321688F072DD4C80740D43F4B50
:103C20001A6802F00F02954266D3226851076CD4DD
:103C3000130707D53A4A2169936823F4604343EA9E
:103C4000C1039360FFF7AAFF354B364A9B68C3F365
:103C50000313D35CD840344B18600020FFF7C0F842
:103C60000020BDE8F081CAB21A701B6803F00F0390
:103C70009942C6D1CEE72A4B11F0040F1EBF9A68B5
:103C800042F4E0529A600E0742BF9A6842F46042E2
:103C90009A609A68A06822F0F00202439A60BCE73A
:103CA00062681F4B012A1DD11B6813F4003FA8D086
:103CB0001B4EB36823F003031343B360FFF7C6F84A
:103CC00041F288380746B368626803F00C03B3EB2F
:103CD000820FA4D0FFF7BAF8C01B4045F3D90320E8
:103CE000BDE8F081911E01291B6802D813F0007F06
:103CF000DDE713F0020FDAE7EAB21A701B6803F08F
:103D00000F039D427FF47DAF8FE70549E0688B6824
:103D100023F4E05303438B608AE700BF003C02407A
:103D2000003802404A56010898850020014B186867
:103D3000704700BF98850020044B054A9B68C3F379
:103D40008223D35C034A1068D84070470038024091
:103D50005A56010898850020044B054A9B68C3F316
:103D60004233D35C034A1068D840704700380240A1
:103D70005A560108988500202DE9F04389B0054680
:103D80000E46FFF763F80023814608212868009358
:103D9000019301F0C6FA044640BB296D2868090466
:103DA00001F0CAFB044608BB4FF0FF33029308231F
:103DB000039330230493022305930690012302A961
:103DC0002868079301F09AFA286801F0E6FB044698
:103DD00060B9074640F22A482868436B13EA080F87
:103DE000436B07D0190718D508248463204609B00F
:103DF000BDE8F0839B0207D501F0C2F908AB03EBE5
:103E00008703013743F8200CFFF720F8A0EB0900E7
:103E10000130E1D14FF00044E8E7436B9A0701D548
:103E20000224E2E7436B9B0601D52024DDE740F244
:103E3000FF538363009B1BBA7360019B1BBA336003
:103E4000D4E72DE9F04F87B004460D4691469846D9
:103E5000109EFEF7FBFF07462DB9A36B43F00063EE
:103E6000A363012010E094F83400C0B2012840F0B0
:103E7000C380E26D09EB080300219342A16306D9D8
:103E8000A36B43F00073A36307B0BDE8F08F032377
:103E900084F834302068636CC162012B4FF40071E8
:103EA00018BF4FEA492901F03CFA50B1236840F2AB
:103EB000FF529A63A36B1843A063012084F8340077
:103EC000E2E74FF0FF3300934FEA48230193049059
:103ED00090234FF0010A4FF0020B694620680293CD
:103EE000CDF80CB0CDF814A001F008FAD0450AD9ED
:103EF000C4F830B04946206801F043FA0028D5D113
:103F000040F22A3A27E0C4F830A04946206801F080
:103F100020FAF3E71A040BD5A5F1040905F11C0BEF
:103F2000206801F02DF949F8040FD945F8D1203562
:103F300066B9236840F2FF529A63A36B43F00043D3
:103F4000A363012384F8343003209DE7FEF77EFF4E
:103F5000C01B8642EDD92068436B13EA0A0F436BFE
:103F6000D8D0DB0509D5B8F1010F06D9636C032B56
:103F700003D001F04FFA002898D123685A6B10073C
:103F800007D540F2FF529A63A36B43F00803A36383
:103F900093E75A6B910706D540F2FF529A63A36BE1
:103FA00043F00203F3E75A6B920618D540F2FF5232
:103FB0009A63A36B43F02003E9E701F0E1F845F8C9
:103FC000040B3EB9236840F2FF529A63A36B43F09F
:103FD0000043DCE7FEF73AFFC01B8642F2D92068B7
:103FE000436B13F40013E8D140F2FF5282630122C5
:103FF00084F83420184647E7A36B43F000532FE7BB
:104000002DE9F04786B004460D4691461E460E9FA8
:10401000FEF71CFF80462DB9A36B43F00063A3633A
:10402000012010E094F83400C0B2012840F09F80D5
:10403000E26D09EB060300219342A16306D9A36B4D
:1040400043F00073A36306B0BDE8F087032384F850
:1040500034302068636CC162012B4FF4007118BFCB
:104060004FEA492901F05DF950B1236840F2FF524F
:104070009A63A36B1843A063012084F83400E2E73D
:10408000012E35D9202323634946206801F0A9F980
:104090000028EAD14FF0FF3300937302019390237D
:1040A000029303900490012369462068059301F070
:1040B00025F940F21A3A2068436B13EA0A0F436B62
:1040C0001DD0DD0508D5012E06D9636C032B03D066
:1040D00001F0A0F90028C8D123685A6B11072DD52B
:1040E00040F2FF529A63A36B43F00803A363C3E754
:1040F000102323634946206801F05BF9C8E75B049D
:1041000009D5A94620354946206809F1040901F07E
:104110003AF84D45F7D157B9236840F2FF529A63F8
:10412000A36BA363012384F8343003208BE7FEF7ED
:104130008DFEA0EB08008742BDD8EDE75A6B9207D1
:1041400006D540F2FF529A63A36B43F00203CDE71A
:10415000586B40F2FF5210F010009A6303D0A36B2B
:1041600043F01003C2E7012384F834306BE7A36BFC
:1041700043F0005353E77047704770477047436EF2
:104180009A0F0A70C3F383624A70C3F301628A70A4
:10419000C3F30742CA70C3F30722DBB20A714B7143
:1041A000836E1A0E1201CA80CA8830B592B2C3F368
:1041B00003542243CA80C3F303420A72C3F30722A3
:1041C000D4094C72C2F380148C72C2F34014CC72C6
:1041D000C2F300140C7300244C73446C002C40F0A8
:1041E0008380920202F440620A610A699B0003F430
:1041F0007F7313430B61C26E0B6943EA92730B61C9
:10420000C2F3C2630B75C2F302634B75C2F3425330
:104210008B75C2F38243CB75D30B03F006030B7689
:104220000C7EC2F30723C2F3C03222430A760A6926
:104230000C7E01320234A24042650D7A0124AC406A
:104240008465640A6243C2654FF400720266C3F378
:1042500080125B0003F07E034A768B76C36E8A7E03
:10426000C3F3C014224303F07F038A76CB76036F37
:10427000DA0F0A77C3F341724A77C3F382628A770F
:104280009A0D02F00C02CA77CA7FC3F38150024331
:10429000CA77C3F3405281F820200020C3F30042C4
:1042A00081F8210081F82220C3F3C03281F8232055
:1042B000C3F3803281F82420C3F3403281F82520F3
:1042C000C3F3003281F82620C3F3812281F827202E
:1042D000C3F30122C3F3460381F8282081F8293073
:1042E000012381F82A3030BD012C1AD11B0403F4BC
:1042F0007C130B61C36E0A691C0E42EA04220A6138
:104300000C69C3F3074222430A610A69920202F56B
:1043100080624265C2654FF40072C3F30723826571
:1043200094E7036840F2FF529A63836B43F0805333
:104330008363012380F83430184630BDF0B599B05E
:10434000002576230C930A950B950AAB044693E857
:1043500007008DE807006F4E07950895099507AB94
:104360000ECB206800F0F0FE01273560206800F0D9
:104370000FFF37600220FEF76FFD2068069501F001
:104380007BF8064668B9206801F09EF880B3A66401
:104390004FF6FF75069B5A1CAB42069208D14FF0B0
:1043A0008076012084F83400A16B0E43A66381E07F
:1043B0000021206801F0C0F8014610B14FF080568E
:1043C000EFE7206801F0D0F801460028F6D1206818
:1043D00000F0F9FE0028DDDA002363642068012381
:1043E000ADF8163000F0D8FE10BB4FF080656BE0E2
:1043F000A7644FF6FF75069B5A1CAB420692CED0BF
:104400000021206801F098F806460028C9D14FF035
:104410008041206801F0A8F806460028C1D1014675
:10442000206800F0D0FEC30FE5D04200D4D5D4E719
:10443000636C032B1AD0206801F0C7F805460028EA
:1044400042D10146206800F0BEFE0421606720686A
:1044500000F0B9FE0821A067206800F0B4FE0C212E
:10446000E067206800F0AFFEC4F88000636C032BA7
:1044700022D1636C032B2ED10421206800F0A3FE0F
:10448000000DE0640DA92046FFF779FE226D20683B
:104490001204002300F0D8FF0546A8B904F1100368
:1044A00093E807008DE80700231D0ECB206800F07D
:1044B0004BFE284619B0F0BD0DF11601206801F041
:1044C000AFF805460028D4D0012084F83400A36B4F
:1044D0001D43A563EEE7BDF81610216520680904A9
:1044E00001F088F805460028EED10146206800F06A
:1044F0006AFE04216066206800F065FE0821A0665F
:10450000206800F060FE0C21E066206800F05BFE91
:104510002067B1E7A080254210B50446A0B190F80D
:10452000343003F0FF0213B9027704F0EBF90323F0
:1045300084F834302046FFF701FF00200123A063F8
:10454000206384F8343010BD012010BD436C0B6033
:10455000836C4B60C36C8B60036DCB60436D0B61F0
:10456000836D4B61C36D8B61036ECB61002070471F
:1045700070B5032380F83430436C032B8AB00446B3
:104580000E4602D0B1F5805F03D1A36B43F0805398
:1045900056E0B1F5006F2DD100210068049105911E
:1045A00000F011FE800120D404A92046FFF7E4FBAF
:1045B00060B9059B59031AD5216D2068090400F0E4
:1045C000BBFF18B90221206801F0AEF8A36B1843B5
:1045D000A063A56B002D35D0236840F2FF52012067
:1045E0009A6384F834000AB070BD3046EEE74FF0AD
:1045F0008060EBE709BB00680491059100F0E3FDE2
:10460000820114D404A92046FFF7B6FB60B9059BCC
:10461000DB030FD5216D2068090400F08DFF18B968
:104620000146206801F080F8A16B0843D0E74FF401
:104630000060F9E74FF08060F6E7836B43F00063BA
:10464000A363C6E763680493A3680593E3680693CE
:1046500063690893A369099307960AAB13E90700F6
:104660008DE8070004AB0ECB206800F06DFD012340
:1046700084F834302846B6E7016D10B509040446C5
:10468000006801F021F8014628B9206800F09BFD80
:10469000C0F3432010BDA36B1943A1630020F7E7CB
:1046A00038B5846B236C0BB100232364E56BC5B96B
:1046B0002046FFF7E1FF05380123C0B29842A56309
:1046C00084F834300DD8206800F0A4FEA36B1843A2
:1046D000A063A36B204613B1FFF750FD38BDFFF771
:1046E0004CFD38BD38B5846BE36B0BB10023E3633D
:1046F000256CC5B92046FFF7BFFF05380123C0B2BE
:104700009842A56384F834300DD8206800F082FE0A
:10471000A36B1843A063A36B204613B1FFF72EFDD4
:1047200038BDFFF72AFD38BD70B504460068436BFD
:10473000DA054FD54FF480738363C36B23F44E7354
:1047400023F00203C363236B13F0080F236B1ED007
:104750009B0702D4236B9E0608D500F05BFE28B1B0
:10476000A36B1843A0632046FFF707FD236840F2C0
:10477000FF529A63012384F83430236BDD0720460F
:1047800002D4236B9C0722D5FFF7F6FC70BD1906F7
:1047900040F1A580236B9A0608D500F03BFE28B1B6
:1047A000A36B1843A0632046FFF7E7FC236BDB07EE
:1047B00000F19580236B9E0700F191802268D36AF7
:1047C00023F00803D362012384F834302046FFF736
:1047D000D2FC70BD436B5D0410D5256A4FF4804355
:1047E000836305F1200629462068043500F0CBFCE0
:1047F000AE42F8D1236A2033236270BD436B1904A3
:1048000010D5A56A4FF400432E1F83631C35206822
:1048100000F0B6FC46F8040FB542F8D1A36A203385
:10482000A36270BD426B40F23A231A4257D0436BE9
:104830009A0742BFA36B43F00203A363436B1B07BA
:1048400042BFA36B43F00803A363436B9E0642BFC2
:10485000A36B43F02003A363436BDD0642BFA36B4E
:1048600043F01003A363436B990542BFA36B43F06E
:104870000803A36340F2FF738363C36B23F44E7397
:1048800023F00203C363236B1A061FD5206C48B1C3
:10489000134B0365FEF70CFE08B3206CBDE87040B7
:1048A000FFF7FEBEE06B48B10E4B0365FEF700FE5E
:1048B000A8B1E06BBDE87040FFF714BF0123A0630F
:1048C00084F834302046FFF759FC70BD236B1B077A
:1048D00005D5012384F834302046FFF74EFC70BD27
:1048E000A1460008E546000810B50446002836D069
:1048F0000023836290F8513003F0FF021BB980F867
:10490000502004F07BF82168A068A269022384F893
:1049100051300B6823F040030B6063680343E06889
:1049200003432069034360690343E0690343206A4A
:104930000343A06A034302F4007003430B60120CAC
:10494000636A02F004021A434A60CB6923F40063ED
:10495000CB6100200123606584F8513010BD012037
:1049600010BD036848689A6822F0700230B50243AF
:104970000C6822F00702224350289A6021D002D806
:10498000402810D030BD60282DD070283DD1CA6895
:104990008C6898680969224320F47F4042EA01222A
:1049A00002439A6030BD186A1A6A096922F001024E
:1049B0001A629A6922F0F00242EA01129A611862C0
:1049C00030BD88680D69196A1C6A24F001041C62F4
:1049D0009A6921F00A0122F0F00242EA051201432D
:1049E0009A61196230BD186A8C680D6920F0100058
:1049F000186299691A6A21F4704122F0A00241EA12
:104A0000053142EA041299611A6230BD0368DA681E
:104A100042F00102DA601A6842F001021A600020D6
:104A200070470368DA6822F00102DA60196A41F21D
:104A30001112114208D1196A40F24442114202BFD8
:104A40001A6822F001021A600020704738B590F809
:104A50003830012B04464FF0020315D0012580F8B1
:104A6000385080F83930FFF77CFF2368DA6822F08D
:104A70004002DA60DA68002022F48042DA6084F8CA
:104A8000395084F8380038BD184638BD7047704733
:104A900070477047704703681A69910710B504465C
:104AA0000ED5DA6892070BD56FF002021A619B6986
:104AB00001229B07027677D0FFF7EAFF00232376D7
:104AC00023681A69500710D5DA6851070DD56FF0C1
:104AD00004021A619B69022213F4407F2276204669
:104AE00068D0FFF7D5FF0023237623681A691207E1
:104AF0000FD5DA6810070CD56FF008021A61DB6970
:104B000004229907227620465AD0FFF7C1FF0023DE
:104B1000237623681A69D20610D5DA68D0060DD537
:104B20006FF010021A61DB69082213F4407F2276CD
:104B300020464BD0FFF7ACFF0023237623681A6989
:104B4000D10708D5DA68D20705D56FF001021A61DE
:104B50002046FFF79BFF23681A69100608D5DA681C
:104B6000110605D56FF080021A61204600F0D7F8D3
:104B700023681A69520608D5DA68500605D56FF021
:104B800040021A612046FFF785FF23681A699106E3
:104B900022D5DA6892061FD56FF0200220461A61EE
:104BA000BDE8104000F0BAB8FFF771FF2046FFF7EC
:104BB00070FF83E7FFF76BFF2046FFF76AFF92E77E
:104BC000FFF765FF2046FFF764FFA0E7FFF75FFFF1
:104BD0002046FFF75EFFAFE710BD00002E4A0368D6
:104BE000904212D0B0F1804F0FD0A2F57C4290429B
:104BF0000BD002F58062904207D002F580629042AD
:104C000003D002F5784290421DD14A6823F0700328
:104C10001343214A904204D1CA6823F440731343DA
:104C200028E0B0F1804FF7D01C4A9042F4D002F552
:104C300080629042F0D002F580629042ECD002F5A2
:104C400078429042E8D0164A9042E5D002F5806260
:104C50009042E1D002F580629042DDD0A2F5983218
:104C60009042D9D002F580629042D5D002F58062A0
:104C70009042D1D003608B68C3620B688362064B9D
:104C8000984206D003F58063984202D00123436125
:104C900070470B690363F9E700000140000400401E
:104CA0000040014010B50446A0B190F8393003F03F
:104CB000FF021BB980F8382003F00EFF022384F8AE
:104CC00039302068211DFFF789FF012384F839302E
:104CD000002010BD012010BD90F83830012B10B518
:104CE0004FF0020318D080F8393003680C685A6816
:104CF000496822F070025A605A6822435A609A68E2
:104D000022F080029A609A680A439A60012380F830
:104D10003930002380F83830184610BD704770478E
:104D20002DE9F0470668C2683369C16923F440532E
:104D300013433361044683680069F2680343606982
:104D400022F41642034322F00C020B431343F36098
:104D50007369A26923F440731343B1F5004F736183
:104D60007A4B7CD19E4203D003F580639E4244D1AE
:104D7000FEF7F2FF192505FB00F360684FF06409A8
:104D80004000B3FBF0F3B3FBF9F34FEA0318FEF76F
:104D9000E3FF636868435B00B0FBF3F7FEF7DCFFFB
:104DA000636868435B00B0FBF3F3B3FBF9F309FB03
:104DB0001373DB003233B3FBF9F35B0003F4F877D2
:104DC000FEF7CAFF626868435200B0FBF2FAFEF7D2
:104DD000C3FF636868435B00B0FBF3F3B3FBF9F315
:104DE00009FB13A3DB003233B3FBF9F303F0070332
:104DF00043443B44B360BDE8F087FEF79DFF1925AF
:104E000005FB00F360684FF064094000B3FBF0F36A
:104E1000B3FBF9F34FEA0318FEF78EFF63686843AC
:104E20005B00B0FBF3F7FEF787FF636868435B0046
:104E3000B0FBF3F3B3FBF9F309FB1373DB0032337D
:104E4000B3FBF9F35B0003F4F877FEF775FF6268D4
:104E500068435200B0FBF2FAFEF76EFFB9E79E42DC
:104E600002D03B4B9E4240D1FEF776FF6768192582
:104E70004FF0640905FB00F3BF00B3FBF7F3B3FB8E
:104E8000F9F31F01FEF768FF636868439B00B0FBFE
:104E9000F3F8FEF761FF636868439B00B0FBF3F330
:104EA000B3FBF9F309FB13831B013233B3FBF9F3B3
:104EB00003F0F008FEF750FF626868439200B0FB11
:104EC000F2FAFEF749FF636868439B00B0FBF3F317
:104ED000B3FBF9F309FB13A31B013233B3FBF9F363
:104EE00003F00F0343EA080383E7FEF725FF676833
:104EF00019254FF0640905FB00F3BF00B3FBF7F37E
:104F0000B3FBF9F31F01FEF717FF636868439B00CB
:104F1000B0FBF3F8FEF710FF636868439B00B0FB3B
:104F2000F3F3B3FBF9F309FB13831B013233B3FB38
:104F3000F9F303F0F008FEF7FFFE626868439200A1
:104F4000B0FBF2FAFEF7F8FEBDE700BF001001402B
:104F500000140140F8B504460E4617461D46216868
:104F60000B6836EA030301D10020F8BD6B1CF7D0B3
:104F700095B92368DA6822F4D072DA605A6922F0AF
:104F800001025A61202384F8393084F83A30002332
:104F900084F838300320F8BDFDF758FFC01B854268
:104FA000DDD2E6E710B5044640B390F8393003F09F
:104FB000FF021BB980F8382003F0BEFD22682423CD
:104FC00084F83930D36823F40053D3602046FFF7C8
:104FD000A7FE23681A6922F490421A615A6922F0E6
:104FE0002A025A61DA6842F40052DA600020202373
:104FF000E06384F8393084F83A3010BD012010BDE8
:105000002DE9F0411F4690F83930202B04460D461B
:1050100090464FD100294AD0002A48D090F8383025
:10502000012B47D0012380F838300023C3632123AC
:1050300080F83930FDF70AFFA4F824800646A4F86A
:105040002680E38C9BB26BB93B463246402120461A
:10505000FFF780FFB0B9202384F8393084F8380096
:10506000BDE8F081E38C013B9BB2E384A368B3F518
:10507000805F32463B464FF0800120460ED1FFF75D
:1050800069FF10B10320BDE8F0812B882268C3F3CB
:1050900008035360236943B90235D2E7FFF75AFF8B
:1050A0000028EFD123682A785A600135C9E701202A
:1050B000BDE8F0810220BDE8F0810000114B4FF403
:1050C000FA521B68B3FBF2F241F28833534313F1F7
:1050D000FF3314D3426B12F0450FF8D0436B5B07DC
:1050E00003D50423836318467047436B13F0010311
:1050F00001D00123F6E740F2FF528263F3E74FF05D
:105100000043F0E7988500200E4B4FF4FA521B68DD
:10511000B3FBF2F241F28833534313F1FF330ED362
:10512000426B12F0450FF8D0436B13F0040315BF28
:10513000042340F2FF5283638263184670474FF0A6
:10514000004070479885002084B010B503AC84E817
:105150000E000499039B42680B4305990B43069983
:105160000B4307990B430899BDE8104022F4FD4218
:105170000B4322F07F021343436004B000207047CA
:10518000D0F8800070470B68C0F88030002070476E
:105190000323036000207047006800F0030070479D
:1051A0000B6810B583608C684B68C2682343CC6879
:1051B0000969234322F47F620B4322F00F02134359
:1051C000C360002010BD82B014300144002301935D
:1051D0000191019B186802B070470000454B10B563
:1051E0001B684FF4FA54B3FBF4F35A43002A4AD035
:1051F000436B13F0450F02F1FF32F7D0436B5C07AE
:1052000003D504238363184610BD436B13F00103D9
:1052100001D00123F6E70269D2B2914236D140F2C1
:10522000FF5219468263FFF7CEFF334B0340002B3A
:10523000E9D000282CDB42002DD484002DD4C100FD
:105240002DD402012ED444012FD4C10130D4020246
:1052500031D4440232D4810233D4C20234D4440360
:1052600035D4810336D4C20337D4040438D441047E
:1052700039D482043AD410F0080F14BF4FF400035D
:105280004FF48033BFE74FF00043BCE70123BAE798
:105290004FF00073B7E74023B5E78023B3E74FF43F
:1052A0008073B0E74FF40073ADE74FF48063AAE773
:1052B0004FF40063A7E74FF48053A4E74FF4005383
:1052C000A1E74FF480439EE74FF400439BE74FF480
:1052D000003398E74FF4802395E74FF4002392E7DB
:1052E0004FF480138FE74FF400138CE74FF48003E3
:1052F00089E700BF9885002008E0FFFD0B6810B526
:1053000043624B688362CC688B68C26A23430C6932
:10531000496923430B4322F0F7021343C362002081
:1053200010BD30B587B0402303930023054601919B
:105330001024049301A94FF4806305930294FFF7AE
:105340002FFF41F2883221462846FFF747FF07B07A
:1053500030BD30B587B0402303930023054601914B
:105360001124049301A94FF4806305930294FFF77D
:1053700017FF41F2883221462846FFF72FFF07B07A
:1053800030BD30B587B0402303930023054601911B
:105390001224049301A94FF4806305930294FFF74C
:1053A000FFFE41F2883221462846FFF717FF07B07B
:1053B00030BD30B587B040230393002305460191EB
:1053C0001824049301A94FF4806305930294FFF716
:1053D000E7FE41F2883221462846FFF7FFFE07B07C
:1053E00030BD30B587B040230393002305460191BB
:1053F0001924049301A94FF4806305930294FFF7E5
:10540000CFFE41F2883221462846FFF7E7FE07B07B
:1054100030BD000030B587B00023054601930C2451
:105420004022049301A94FF48063039205930294F0
:10543000FFF7B6FE034A21462846FFF7CFFE07B026
:1054400030BD00BF00E1F50530B587B040230393C0
:10545000002305460724049301A94FF480630192B9
:1054600005930294FFF79CFE41F2883221462846BC
:10547000FFF7B4FE07B030BD10B586B0002301932E
:1054800002930393049301A94FF4806305930446A8
:10549000FFF786FE0B4B4FF4FA521B68B3FBF2F298
:1054A00041F28833534313F1FF3308D3626B120682
:1054B000F9D540F2FF53A363002006B010BD4FF0B2
:1054C0000040FAE79885002010B586B04FF4D573F8
:1054D000019308230293402303930023049301A91B
:1054E0004FF4806305930446FFF75AFE114B4FF4C7
:1054F000FA521B68B3FBF2F241F28833534313F1C3
:10550000FF3314D3626B12F0450FF8D0626B12F0C8
:10551000040204D04023A363042006B010BD606BD6
:1055200010F04000F9D04023A3631046F5E74FF098
:105530000040F2E79885002030B587B04023039300
:105540000023054601913724049301A94FF4806399
:1055500005930294FFF724FE41F288322146284643
:10556000FFF73CFE07B030BD10B586B0292302938B
:1055700041F000414023039341F48011002304468D
:105580000191049301A94FF480630593FFF708FE8E
:105590002046FFF7B9FD06B010BD30B587B0002337
:1055A0000546019333244022049301A94FF48063FC
:1055B000039205930294FFF7F3FD41F288322146EE
:1055C0002846FFF70BFE07B030BD10B586B00023AC
:1055D00002220446019302920493C0224FF4806396
:1055E00001A903920593FFF7DBFD2046FFF766FD57
:1055F00006B010BD10B586B009230293C0230393F3
:10560000002304460191049301A94FF4806305939C
:10561000FFF7C6FD2046FFF751FD06B010BD0000A4
:1056200030B587B0002303220193029204934022F5
:105630004FF480630D4601A9039205930446FFF7DA
:10564000AFFD204B4FF4FA521B68B3FBF2F241F26C
:105650008833534313F1FF332BD3626B12F0450FA2
:10566000F8D0636B5A0703D50420A06307B030BDA0
:10567000616B11F0010101D00120F6E72369DBB273
:10568000032B19D140F2FF53A3632046FFF79BFD84
:1056900010F4604303D1000C28801846E6E7430469
:1056A0000CD410F4004F14BF4FF480504FF48030EE
:1056B000DCE74FF00040D9E70120D7E74FF4005076
:1056C000D4E700BF9885002030B587B0402303930E
:1056D0000023054601910D24049301A94FF4806332
:1056E00005930294FFF75CFD41F28832214628467B
:1056F000FFF774FD07B030BD30B587B0402303938A
:105700000023054601910624049301A94FF4806308
:1057100005930294FFF744FD41F288322146284662
:10572000FFF75CFD07B030BDFFF7E6BF034B1A186B
:1057300003EB8003107A5B685B681847E8850020FC
:10574000064B1A5C42B901221A541A1803EB800363
:10575000107A5B681B68184700207047E8850020B6
:1057600030B4054C251804EB800460688468287AFE
:10577000A44630BC604700BFE885002030B4054C2B
:10578000251804EB80046068C468287AA44630BCFD
:10579000604700BFE8850020054B10B41C1803EBE0
:1057A0008003207A5B685DF8044B1B69184700BFD3
:1057B000E885002010B5064C0123237001F0C0F9E4
:1057C000234618B9227802F0FE022270187810BD24
:1057D000D401002010B5064C0123237001F0EAF932
:1057E000234618B9227802F0FE022270187810BD04
:1057F000D401002010B5084611461A46074B01F0A7
:10580000B9F940B1012010BD013CFBD001F0D2F943
:105810000028F9D110BD024CF8E700BF00E1F50502
:10582000A186010010B5114B1B78DB0788B0144628
:105830001AD4032903D8DFE801F010050B12042065
:1058400008B010BD684601F0BFF9069B236004E074
:10585000684601F0B9F9079B23800020F0E768460D
:1058600001F0B2F9079BF1E70320E9E7D40100203A
:1058700010B5084611461A46074B01F08BF940B1A6
:10588000012010BD013CFBD001F094F90028F9D1B2
:1058900010BD024CF8E700BF00E1F505A18601004C
:1058A00001380A44914200D1704711F8013B00F8D9
:1058B000013FF7E70244904200D1704700F8011B16
:1058C000F9E70000174AF0B500242346164615688C
:1058D000C5B1D0F80072BD4215D15768D0F8085252
:1058E000AF4210D11789B0F80652AF420BD1B9B907
:1058F0000C2202FB03635B89B3F5807F14BF002099
:105900001020F0BD01240133022B02F10C02DED184
:105910000CB10020F0BD02290CBF00201220F0BD08
:105920001020F0BDCC850020F0B5204CD0F80062EE
:10593000002322462568B54209D16768D0F808528D
:10594000AF4204D12789B0F80652AF4222D00133CA
:10595000022B04F10C04EDD1136813B1D3681BBB07
:1059600001230C245C4315191651D0F80842B0F8F5
:105970000602288100206C60688191B90C2101FB2E
:1059800003214989013189B20C2000FB0322581CF4
:105990005181F0BD0029F1D00C2101FB032149897F
:1059A00011B94FF48071EFE70020F0BDCC850020E5
:1059B00030B5451E012D11D80A490C2202FB0513F2
:1059C0005C8924F4807398B208B1013CA0B202FB58
:1059D00005F3CA18508118B9C85030BD022030BD37
:1059E000002030BDCC850020D0F82432D0F8002231
:1059F0000433490A92F80222B1FBF2F1186830B17F
:105A0000814202D3091A0833F8E7586808447047FE
:105A1000026810B552B111460B4611F8014B202C0B
:105A20000CD93A2CF8D1511C8B4202D04FF0FF30E8
:105A300010BD1278302AF9D101330360002010BD67
:105A400008B590B1D0F800327BB193F8002262B172
:105A5000B3F80612B0F80422914206D193F801027D
:105A6000FFF764FE10F0010000D0092008BDCA7ED7
:105A70008B7E032843EA022301BF487D0A7D42EA68
:105A8000002243EA02431846704770B5D0F82C5202
:105A90000446014601232A4690F80102FFF76EFEF4
:105AA000D0B9D4F82032D4F8182284F80402EB1AC2
:105AB000934201D3002070BD94F80362012EF9D9FE
:105AC000D4F8183294F801021D442A4601232146D5
:105AD000FFF754FE013EF1E7012070BD90F804325B
